{"abi":[{"type":"function","name":"notify","inputs":[{"name":"contractAddress","type":"address","internalType":"address"}],"outputs":[],"stateMutability":"nonpayable"},{"type":"event","name":"NewExtensionsContract","inputs":[{"name":"contractAddress","type":"address","indexed":true,"internalType":"address"}],"anonymous":false}],"bytecode":{"object":"0x608060405234801561001057600080fd5b5060ef8061001f6000396000f3fe6080604052348015600f57600080fd5b506004361060285760003560e01c80635fb9cf2014602d575b600080fd5b603c6038366004608b565b603e565b005b33600090815260208190526040808220805460ff19166001179055516001600160a01b038316917ff1739e9fc84e4bd25334e6e671a08c89d3fd50e94a7bd64a618cd4b1313ffcad91a250565b600060208284031215609c57600080fd5b81356001600160a01b038116811460b257600080fd5b939250505056fea26469706673582212204fcfdc56701e4182677913288bc3187a1c9959f9804efb10bf38599048b5fa2864736f6c63430008180033","linkReferences":{}},"methodIdentifiers":{"notify(address)":"5fb9cf20"},"id":0}