{"abi":[{"type":"function","name":"notify","inputs":[{"name":"contractAddress","type":"address","internalType":"address"}],"outputs":[],"stateMutability":"nonpayable"},{"type":"function","name":"test","inputs":[{"name":"x","type":"uint256","internalType":"uint256"}],"outputs":[{"name":"","type":"uint256","internalType":"uint256"}],"stateMutability":"nonpayable"},{"type":"event","name":"NewExtensionsContract","inputs":[{"name":"contractAddress","type":"address","indexed":true,"internalType":"address"}],"anonymous":false}],"bytecode":{"object":"0x608060405234801561001057600080fd5b5061018a806100206000396000f3fe608060405234801561001057600080fd5b50600436106100365760003560e01c806329e99f071461003b5780635fb9cf2014610060575b600080fd5b61004e6100493660046100ea565b610075565b60405190815260200160405180910390f35b61007361006e366004610103565b6100b3565b005b60405160009033907ff1739e9fc84e4bd25334e6e671a08c89d3fd50e94a7bd64a618cd4b1313ffcad908390a26100ad82600a610133565b92915050565b6040516001600160a01b038216907ff1739e9fc84e4bd25334e6e671a08c89d3fd50e94a7bd64a618cd4b1313ffcad90600090a250565b6000602082840312156100fc57600080fd5b5035919050565b60006020828403121561011557600080fd5b81356001600160a01b038116811461012c57600080fd5b9392505050565b808201808211156100ad57634e487b7160e01b600052601160045260246000fdfea2646970667358221220964d661dbacefe74f3129d1fb809819156271a74378e6a57254737b6b1df499464736f6c63430008180033","linkReferences":{}},"methodIdentifiers":{"notify(address)":"5fb9cf20","test(uint256)":"29e99f07"},"id":0}